:020000040800F2
:1000000098040020A9010008CF1200083D12000842
:10001000CD120008B50200082117000800000000FA
:10002000000000000000000000000000D3120008E3
:100030000D03000800000000D1120008D5120008CE
:10004000C3010008C3010008C3010008C301000880
:10005000C3010008C3010008C3010008C301000870
:10006000C3010008C3010008C3010008C301000860
:10007000C3010008C3010008C3010008C301000850
:10008000C3010008C3010008C3010008C301000840
:10009000C3010008C3010008C3010008C301000830
:1000A000C3010008C3010008C3010008C301000820
:1000B000C3010008C3010008C3010008C301000810
:1000C000C3010008C3010008C3010008C301000800
:1000D000C3010008C3010008C3010008C3010008F0
:1000E00011030008C3010008C3010008C301000890
:1000F000C3010008C3010008C3010008C3010008D0
:10010000C30100080000000000000000C301000857
:10011000C3010008C3010008C3010008C3010008AF
:10012000C3010008C3010008C3010008C30100089F
:10013000C3010008C3010008000000000000000027
:10014000C3010008C3010008C3010008000000004B
:10015000000000000000000000000000000000009F
:10016000C3010008C3010008C3010008C30100085F
:10017000C3010008C3010008C3010008C30100084F
:10018000C3010008C30100080000000000000000D7
:10019000C3010008DFF80CD000F07AF800480047EF
:1001A000AD1700089804002006488047064800471D
:1001B000FEE7FEE7FEE7FEE7FEE7FEE7FEE7FEE717
:1001C000FEE7FEE745130008950100082DE9F05F02
:1001D0000546002092469B468846064681464024B6
:1001E0001BE0284641464746224600F020F8534689
:1001F0005A46C01A914110D311461846224600F0C3
:1002000038F82D1A67EB01084F46224601200021DD
:1002100000F02FF817EB00094E41201EA4F1010455
:10022000DFDC484631462A464346BDE8F09F202A97
:1002300004DB203A21FA02F00021704721FA02F390
:10024000D040C2F120029140084319467047D2B213
:1002500001E000F8012B491EFBD270470022F6E7AF
:1002600010B513460A4604461946FFF7F0FF20462C
:1002700010BD202A04DB203A00FA02F1002070476A
:100280009140C2F1200320FA03F3194390407047D4
:10029000064C074D06E0E06840F0010394E80700D3
:1002A00098471034AC42F6D3FFF778FF08180008DF
:1002B00028180008FEE7000010B5134C11480C2167
:1002C00020604FF4164060600020A060E060C4E948
:1002D0000401A061E06120626062204600F0F0FE4F
:1002E00008B100F025F82068016841F020010160A4
:1002F00001220021262000F06FF9BDE810402620E1
:1003000000F05CB900440040180000207047000075
:1003100010B5064C2068800406D520214FF090408F
:1003200000F0EEF86014206010BD000014040140DD
:10033000704700002DE9F84FDFF8A0B10023012736
:100340004FF0030A4FF00F090BF1040EBEE000BF9F
:1003500007FA03F63440220072D04C68022C01D018
:10036000122C12D1DC0800EB840CDCF820405D0775
:10037000ED0E09FA05F824EA0804D1F8108008FA0D
:1003800005F848EA0408CCF82080D0F800805D0029
:1003900091F804C00AFA05F40CF0030C28EA0408EA
:1003A0000CFA05FC4CEA080CC0F800C0D1F804C0F7
:1003B000BCF1010F08D0BCF1020F05D0BCF1110F48
:1003C00002D0BCF1120F16D1D0F808C0D1F80C80C1
:1003D0002CEA040C08FA05F848EA0C08C0F8088072
:1003E000D0F804C02CEA060C0E79C6F300169E4025
:1003F00046EA0C064660C668A6438C68AC403443A7
:10040000C4604C68E40060D5354CA56945F0010531
:10041000A561A46923F0030504F001040094314CA4
:100420002E19B4689D074FEA157C09FA0CF5AC4308
:10043000B0F1904F05D02C4DA84204D101251CE00D
:1004400043E0002519E0294DA84201D1022514E01E
:10045000274DA84201D103250FE0264DA84201D126
:1004600004250AE0244DA84201D1052505E0234DCD
:10047000A84201D1062500E0072505FA0CF5254321
:10048000B560DBF800405D464E689443F60300D546
:1004900014432C60DEF8004075464E689443B60362
:1004A00000D514432C600D4D08352C684E689443DC
:1004B000F60200D514432C60084D0C352C684E68AC
:1004C0009443B60200D514432C605B1C0A681446A2
:1004D000DA407FF43DAFBDE8F88F00000004014032
:1004E00000100240000001400004004800080048DD
:1004F000000C004800100048001400480018004894
:1005000042690A4200D0090481617047014880684D
:1005100070470000040000200248816802781144FE
:100520008160704704000020074810B5016841F061
:1005300010010160032000F06FF8002000F006F8C1
:1005400000F024F8002010BD0020024070B50D4DD1
:1005500004464FF47A712878B1FBF0F00A49096833
:10056000B1FBF0F000F098FD48B9102C07D2002242
:100570002146501E00F030F800206C6070BD012054
:1005800070BD000004000020100000200A4882B066
:10059000816941F001018161816901F001010091EE
:1005A000C16941F08051C161C06900F08050009084
:1005B000072002B000F030B800100240002809DB2C
:1005C00000F01F02012191404009800000F1E0206D
:1005D000C0F8001170470000F0B40E4B1B680C46C9
:1005E000C3F30223C3F10705042D00D90425191D07
:1005F000072901D2002300E0DB1E012606FA05F1DF
:10060000491E214099409E40761E16403143F0BC61
:1006100001F090B80CED00E0064900F00702086810
:100620004FF6FF03184040EA0220034A10430860D7
:10063000704700000CED00E00000FA052DE9F84FCE
:10064000044600689F4DC0036FD5E8690026C000CE
:1006500008D4E86940F08050E861E869012600F0BC
:100660008050009098480168C90512D401688046FE
:1006700041F480710160FFF749FF074605E000BFC4
:10068000FFF744FFC01B642835D8D8F80000C00528
:10069000F6D5286A10F4407053D0A18801F4407157
:1006A00081424ED0286A4FF4803191FAA1F2B2FA19
:1006B00082F29700854A4FF00108174420F44070F9
:1006C000C7F8008491FAA1F1B1FA81F102EB81013E
:1006D0000023C1F800342862C00732D0FFF716FFAC
:1006E000074641F2883A4FF0020907E0FFF70EFF94
:1006F000C11B514502D90320BDE8F88F99FAA9F131
:10070000B1FA81F141F040024846B8EB521F01D1E5
:100710002A680CE090FAA0F2B2FA82F242F04002AB
:10072000B0EB521F02D12A6A01E015E06A6A99FA19
:10073000A9F0B0FA80F000F01F0008FA00F10A42B8
:10074000D4D0286A616820F44070084328621EB142
:10075000E86920F08050E8612078C00705D0286B58
:10076000A16820F00300084328632078800705D59E
:10077000286BE16820F44030084328632078400764
:1007800005D5286B216920F4402008432863207890
:10079000800605D5286BE16920F010000843286326
:1007A0002068800305D56868616D20F480000843E7
:1007B00068602078400605D5286B216A20F020006B
:1007C000084328632068400305D5286B616A20F040
:1007D0004000084328632078000705D5286B61692D
:1007E00020F44010084328632078C00605D5286B04
:1007F000A16920F44000084328632088800505D5BE
:100800006868216B20F400000843686020780006C7
:1008100005D5E86AA16A20F4F8700843E8622088E8
:10082000C00505D5E86AE16A20F478500843E8621B
:100830002088C00405D5286B616B20F480700843C4
:1008400028632088800405D5286B216C20F4007073
:10085000084328632068C00205D5286BA16B20F0EF
:100860008070084328632068800205D5286BE16BFF
:1008700020F00070084328632068400205D5286BEB
:10088000616C20F48060084328632068000205D56D
:10089000286BA16C20F40060084328632068C00125
:1008A00005D5286BE16C20F40050084328632068CC
:1008B000800105D5286B216D20F400400843286392
:1008C000002019E700100240007000400000424282
:1008D0002DE9F0470F46050069D04A4E306800F018
:1008E0000700B84209D2306820F007003843306072
:1008F000306800F00700B84259D12878424C800790
:1009000005D56068A96820F0F00008436060287889
:10091000C0073DD06968012001290DD0022923D0EC
:100920005FF0020393FAA3F2B2FA82F242F02002DD
:10093000520904D0226803E04FF40033F2E7626A00
:1009400093FAA3F3B3FA83F303F01F039840024230
:100950002DD0606820F0030008436060FFF7D6FDEB
:10096000804641F288390CE04FF00073DAE700BFAF
:10097000FFF7CCFDA0EB0801494502D90320BDE8F3
:10098000F0876068696800F00C00B0EB810FEFD170
:10099000306800F00700B8420BD9306820F007003B
:1009A00038433060306800F00700B84201D00120C1
:1009B000E5E72878400705D56068E96820F4E0603D
:1009C000084360602878000706D56068296920F42C
:1009D000605040EAC100606000F04EF86168F022AB
:1009E00092FAA2F201F0F001B2FA82F2D140074A83
:1009F000515CC8400649086006480068FFF7A6FD3C
:100A00000020BCE70020024000100240F017000860
:100A100010000020080000200848094900684968C3
:100A20004FF4E06292FAA2F201F4E061B2FA82F2CB
:100A3000D140044A515CC8407047000010000020BB
:100A40000010024000180008084809490068496879
:100A50004FF4605292FAA2F201F46051B2FA82F2BB
:100A6000D140044A515CC84070470000100000208B
:100A70000010024000180008144A10B551681448CC
:100A800001F00C03042B1FD0082B1DD14FF4701460
:100A900094FAA4F401F47013B4FA84F4E3400D4C16
:100AA000D26AE45C0F2393FAA3F302F00F02B3FAC5
:100AB00083F3DA40074BC90310339A5C00231946CD
:100AC000FFF784FBA0FB040110BD000000100240F2
:100AD00000127A00D01700082DE9F84F04007DD0ED
:100AE0002078FA4DC0074FF0010637D068687704C8
:100AF000C0F38100012819D06868C0F38100022882
:100B000004D16868C0F3C13002280FD06068B0F526
:100B1000803F24D010B1B0F5A02F2AD0286820F44F
:100B200080302860286820F480201BE097FAA7F026
:100B3000B0FA80F040F02000400901D0286800E0C1
:100B4000686A97FAA7F1B1FA81F101F01F0106FA7C
:100B500001F108424ED060680028C0D04AE0286801
:100B600040F480302860606820B3FFF7CFFC8046F7
:100B70000AE0286840F480202860F0E7FFF7C6FC10
:100B8000A0EB0800642873D897FAA7F0B0FA80F0B9
:100B900040F02000400901D0286800E0686A97FA18
:100BA000A7F1B1FA81F101F01F0106FA01F1084243
:100BB000E4D01FE0FFF7AAFC804605E0FFF7A6FCA3
:100BC000A0EB08006428DED897FAA7F0B0FA80F00E
:100BD00040F02000400902D0286801E0B9E0686ACE
:100BE00097FAA7F1B1FA81F101F01F0106FA01F1BC
:100BF0000842E3D12078DFF8D88280074FF0000A5E
:100C00004FF002075DD568684FF0F80B10F00C0F3D
:100C100015D06868C0F38100022804D16868C0F369
:100C2000C13001280BD0E068A0B396FAA6F0B0FA64
:100C300080F048F82060FFF769FC814620E097FAD1
:100C4000A7F0B0FA80F040F02000400901D02868F9
:100C500000E0686A97FAA7F1B1FA81F101F01F018B
:100C600006FA01F1084221D0E068012871D11DE0A7
:100C700056E100BFFFF74AFCA0EB09000228A2D80A
:100C800097FAA7F0B0FA80F040F02000400902D0B7
:100C9000286801E016E0686A97FAA7F1B1FA81F1D5
:100CA00001F01F0106FA01F10842E3D028689BFA1F
:100CB000ABF22169B2FA82F220F0F80091400843C9
:100CC000286024E096FAA6F1B1FA81F148F821A053
:100CD000FFF71CFC814605E0FFF718FCA0EB0900BC
:100CE0000228CCD897FAA7F0B0FA80F040F02000A4
:100CF000400901D0286800E0686A97FAA7F1B1FAC4
:100D000081F101F01F0106FA01F10842E4D12078D7
:100D100000076AD56069A0B396FAA6F0B0FA80F031
:100D200008EB8000C0F88064FFF7F0FB814605E027
:100D3000FFF7ECFBA0EB09000228A0D897FAA7F078
:100D4000B0FA80F040F06000B6EB501F02D1286886
:100D50000CE09DE197FAA7F0B0FA80F040F0600057
:100D6000B7EB501F01D1286A00E0686A97FAA7F133
:100D7000B1FA81F101F01F0106FA01F21042D7D059
:100D800033E0FFE796FAA6F0B0FA80F008EB8000B7
:100D9000C0F880A4FFF7BAFB814605E0FFF7B6FB79
:100DA000A0EB090002289CD897FAA7F0B0FA80F0CF
:100DB00040F06000B6EB501F01D128680BE097FAB5
:100DC000A7F0B0FA80F040F06000B7EB501F01D1FF
:100DD000286A00E0686A97FAA7F1B1FA81F101F098
:100DE0001F0106FA01F21042D8D12078400774D5CD
:100DF000E8694FF00009C00009D4E86940F080506C
:100E0000E861E8694FF0010900F080500090314836
:100E10000168C90512D4016841F480710160FFF7CF
:100E200075FB834606E000BFFFF770FBA0EB0B00ED
:100E3000642875D827480068C005F5D5A068012842
:100E40000AD008B1052811D0286A20F001002862D4
:100E5000286A20F0040002E0286A40F001002862BD
:100E6000A068C8B3FFF752FB83460DE0286A40F044
:100E700004002862F0E700BFFFF748FBA0EB0B017E
:100E800041F2883081424BD897FAA7F0B0FA80F04F
:100E900040F04000B6EB501F01D128680BE097FAF4
:100EA000A7F0B0FA80F040F04000B7EB501F01D13E
:100EB000286A00E0686A97FAA7F1B1FA81F101F0B7
:100EC0001F0106FA01F21042D6D035E000100240B0
:100ED000000042420070004000E034E0FFF716FBE3
:100EE000834607E0FFF712FBA0EB0B0141F28830CD
:100EF000814215D897FAA7F0B0FA80F040F0400090
:100F0000B6EB501F01D128680CE097FAA7F0B0FAB1
:100F100080F040F04000B7EB501F02D1286A01E09A
:100F200089E0686A97FAA7F1B1FA81F101F01F012F
:100F300006FA01F21042D5D1B9F1000F03D0E869E9
:100F400020F08050E861A06980B36968C1F3810135
:100F5000022973D04FF080714F000228524609D009
:100F600091FAA1F0B0FA80F048F82020FFF7CEFA0D
:100F7000044664E091FAA1F0B0FA80F08A46C146D6
:100F800048F82020FFF7C2FA804605E0FFF7BEFAD6
:100F9000A0EB080002284ED897FAA7F0B0FA80F02C
:100FA00040F02000400902D0286801E072E0686A41
:100FB00097FAA7F1B1FA81F101F01F0106FA01F1E8
:100FC0000842E3D1E86A616A20F00F000843E86252
:100FD000D4E907100843696821F476110843686072
:100FE0009AFAAAF0B0FA80F049F82060FFF78EFA7A
:100FF000044604E0FFF78AFA001B02281BD897FA80
:10100000A7F0B0FA80F040F02000400901D0286835
:1010100000E0686A97FAA7F1B1FA81F101F01F01C7
:1010200006FA01F10842E5D034E000BFFFF76EFA9E
:10103000001B022803D90320BDE8F88F15E097FABA
:10104000A7F0B0FA80F040F02000400901D02868F5
:1010500000E0686A97FAA7F1B1FA81F101F01F0187
:1010600006FA01F10842E1D114E00128E4D06868F1
:10107000E96AE36900F4C0329A4209D1226A00F4B5
:101080007010904204D101F00F00616A884201D0D3
:101090000120D1E70020CFE710B5401EB0F1807FDE
:1010A00001D3012010BD4FF0E02460610F216017D3
:1010B00000F040FB0020A06107202061002010BD4F
:1010C00010B5040002D0606F10B107E0012010BD20
:1010D000002084F87000204600F026F82420606785
:1010E0002068016821F001010160204600F0D2F97A
:1010F0000128ECD0606A10B1204600F03BF920686E
:10110000416821F4904141602068816821F02A0102
:1011100081602068016841F0010101602046BDE85E
:10112000104000F08BB9000010B586B004461421C1
:101130006846FFF793F81249206888421ED111488B
:10114000C16941F40031C161C16901F40031059107
:10115000416941F4003141614069694600F4003061
:1011600005900C2000900220019000200290039036
:10117000072004904FF09040FFF7DCF806B010BD58
:1011800000440040001002402DE9F8430446406F3F
:101190001F4616460D4620284ED1CDB1C6B194F853
:1011A0007000012848D0012084F870004FF000083A
:1011B000C4F87C8021206067FFF7A8F9A4F850608C
:1011C0008146A4F85260A068B0F5805F03D004E0C7
:1011D0000120BDE8F883206910B12E46002510E0FB
:1011E00000260EE08021204600F048FAB8B9C6B1CA
:1011F00016F8010B21680885B4F85200401EA4F8C7
:101200005200B4F852004B464FF0000200970028FD
:10121000E8D14FF04001204600F030FA30B1032011
:10122000D7E735F8020BC0F30800E3E7202060673A
:1012300084F870800020CCE70220CAE7FEE70000B7
:101240000F4800B5416987B041F400214161406910
:10125000694600F4002005904FF4005000900948C2
:101260000190002002900848FFF764F80022114620
:101270002820FFF7B1F92820FFF7A0F907B000BD3B
:1012800000100240000021100008004800B587B09F
:1012900014216846FEF7E2FF0B48416941F4003132
:1012A00041614069694600F40030059020200090BB
:1012B000012001900020029003904FF09040FFF732
:1012C00039F807B000BD000000100240FEE770478B
:1012D0007047704710B5FFF71FF9BDE8104000F0E8
:1012E0003FB830B5A5B0282116A8FEF7B7FF1421E6
:1012F00020A8FEF7B3FF58216846FEF7AFFF012094
:101300001990102002241A90C002CDE91C404FF41D
:10131000E0100025CDE91E05169416A8FFF7DCFBAA
:1013200020A90F2081E831006002CDE923050221C8
:1013300020A8FFF7CDFA684603950094FFF77EF9E1
:1013400025B030BD0548016841F4700101600349D2
:101350004FF00060803908607047000088ED00E0C1
:1013600003480168002902D00168491E01607047E6
:101370000000002090F82410C90706D001684A68D0
:10138000836A22F400321A434A6090F824108907D5
:1013900006D501684A68C36A22F480321A434A605B
:1013A00090F82410490706D501684A68036B22F4B7
:1013B00080221A434A6090F82410090706D5016874
:1013C0004A68436B22F400421A434A6090F82410A2
:1013D000C90606D501688A68836B22F480521A43D5
:1013E0008A6090F82410890606D501688A68C36B64
:1013F00022F400521A438A6090F82410490611D54D
:1014000001684A68036C22F480121A434A60016C36
:10141000B1F5801F06D101684A68436C22F4C0020E
:101420001A434A6090F82410090606D501684A68F4
:10143000806C22F4002202434A607047F8B500260F
:101440000446C667FFF762F80546206800686FF03B
:101450007E47000708D52B4600224FF40011204696
:10146000009700F00BF960B92068006840070AD5C2
:101470002B4600224FF480012046009700F0FEF832
:1014800008B10320F8BD20206067A06784F8706071
:101490000020F8BD70B5044680682169E269084300
:1014A000616900251143084321680A686A4B1A40A4
:1014B00002430A6020684168E26821F44051114308
:1014C0004160A169206A084321688A6822F4306279
:1014D00002438A60614B206861494FF48032984230
:1014E0000CD1086B10F0030006D001285DD0022853
:1014F0005DD0032844D156E0012142E0594B984287
:101500000CD1086B10F440304BD090424DD0B0F568
:10151000003F4CD0B0F5403F32D144E0524B9842AE
:101520000DD1086B10F440203BD0B0F5802F3CD09B
:10153000B0F5002F3BD0B0F5402F21D133E04B4B1D
:1015400098420DD1086B10F440102AD0B0F5801FDE
:101550002BD0B0F5001F2AD0B0F5401F10D122E0EB
:10156000434B98420CD1086B10F4400019D0B0F5F1
:10157000800F1AD0B0F5000F19D0B0F5400F12D07F
:101580001021E0694FF400434FF6EF76984233D1D3
:1015900009295AD2DFE801F00D1026592959595965
:1015A0002C000021EDE70221EBE70421E9E7082107
:1015B000E7E7FFF731FA01E0FFF746FA410060681C
:1015C00001EB5001B1FBF0F080B2A0F11001B1428B
:1015D0003BD84FF6F0710140C0F342000143206850
:1015E000C16033E023496068EAE7FFF745FAE5E7C1
:1015F000606802EB5001E5E7092926D2DFE801F037
:10160000050817251C2525251F00FFF705FA01E011
:10161000FFF71AFA616800EB5100B0FBF1F080B2FD
:10162000A0F11001B14210D82168C8600EE0124943
:10163000606801EB500105E0FFF71EFAEAE7606819
:1016400003EB5001B1FBF0F0E9E701250020206633
:101650006066284670BD0000F369FFEF0038014066
:10166000001002400044004000480040004C004090
:10167000005000400024F40000127A002DE9F047E9
:101680009A4617460E4604464FF000094FF02008D0
:10169000089D39E0681C37D0FEF738FFA0EB0A0040
:1016A000A84222D80DB32068016849072CD5C0692B
:1016B000C043000528D421684FF400600862206808
:1016C000016821F4D07101602068816821F0010176
:1016D0008160C4F87480C4F87880C4F87C8000BF4E
:1016E00084F870900320BDE8F0872068016821F439
:1016F000D07101602068816821F001018160C4F827
:101700007480C4F87880EBE72068C06936EA00008E
:1017100004D00020B842BDD00020E4E70120F9E762
:10172000FEE70000014A024900F023B895170008BF
:10173000140000200907090E002804DB00F1E02056
:1017400080F80014704700F00F0000F1E02080F8EE
:10175000141D704702E008C8121F08C1002AFAD100
:1017600070477047002001E001C1121F002AFBD121
:1017700070472DE9F04116460F460446002503E068
:101780003946B047641C6D1C20780028F8D12846E3
:10179000BDE8F08113B54FF47A730122694602481F
:1017A000FFF7F2FC00981CBD18000020FEF7BCFEFD
:1017B000FFF797FDFFF76AFDFFF742FDFEF77CFD9F
:1017C00001A0FFF7AFFFFEE76772656174210A00B1
:1017D00002030405060708090A0B0C0D0E0F101072
:1017E0000102030405060708090A0B0C0D0E0F1071
:1017F00000000000000000000102030406070809C1
:101800000000000001020304281800080000002066
:1018100018000000541700084018000818000020A5
:1018200080040000641700080000000001000000B0
:10183000100000000000000000127A00000000000C
:040000050800019559
:00000001FF
